:020000040800F2
:10000000B00400209D010008E30F0008790D0008EE
:10001000E10F0008D10400083114000800000000BE
:100020000000000000000000000000005511000862
:10003000ED04000800000000E50F00088913000827
:10004000B7010008B7010008B7010008B7010008B0
:10005000B7010008B7010008B7010008B7010008A0
:10006000B7010008B7010008B7010008B701000890
:10007000B7010008B7010008B7010008B701000880
:10008000B7010008B7010008B7010008B701000870
:10009000B7010008B7010008B7010008B701000860
:1000A000B7010008B7010008B7010008B701000850
:1000B000B7010008B7010008B7010008B701000840
:1000C000B7010008B7010008B7010008B701000830
:1000D000B7010008B7010008B7010008B701000820
:1000E000B7010008B7010008B7010008B701000810
:1000F000B7010008B7010008B7010008B701000800
:10010000B7010008B7010008B7010008B7010008EF
:10011000B7010008B7010008B7010008B7010008DF
:10012000B7010008B7010008B7010008B7010008CF
:10013000B7010008B7010008B7010008B7010008BF
:10014000B7010008B7010008B7010008B7010008AF
:10015000B7010008B7010008B7010008B70100089F
:10016000B7010008B7010008B7010008B70100088F
:10017000B7010008B7010008B7010008000000003F
:10018000B7010008B7010008DFF80CD000F070F9E3
:10019000004800470D160008B004002006488047BC
:1001A00006480047FEE7FEE7FEE7FEE7FEE7FEE75C
:1001B000FEE7FEE7FEE7FEE72114000889010008DC
:1001C0002DE9F05F0546002092469B46884606468C
:1001D000814640241BE0284641464746224600F01F
:1001E000D9F853465A46C01A914110D311461846C1
:1001F000224600F016F82D1A67EB01084F462246FA
:100200000120002100F00DF817EB00094E41201EDF
:10021000A4F10104DFDC484631462A464346BDE8E6
:10022000F09F202A04DB203A00FA02F100207047F8
:100230009140C2F1200320FA03F319439040704724
:10024000D2B201E000F8012B491EFBD27047002218
:10025000F6E710B513460A4604461946FFF7F0FFC5
:10026000204610BD2DE9FE4F81EA030404F000444E
:1002700021F0004100944FF0000B23F0004350EABE
:1002800001045ED052EA03045BD0C3F30A54C1F305
:100290000A552C44A4F2F3340194A0FB0254C1F398
:1002A000130141F48011C3F3130343F4801301FBE2
:1002B000024400FB034E840A970A44EA815447EA49
:1002C0008357A4FB076802958D0A05FB07854FEA53
:1002D000932C04FB0C542705029D4FEA065847EA6D
:1002E0001637B5EB08056EEB070C870E920E47EA42
:1002F000811742EA8312A7FB0201B6EB0B0164EB04
:1003000000042B0D43EA0C335E1844EB1C50DA4614
:100310005146E7FB0201C5F313044FEA0B3343EAEE
:1003200014534FEA0432019C43EA0603A4F10C047F
:100330000294009CCDE900B400F04BF803B0BDE896
:10034000F08F00200146F9E70EB540F233410291EB
:100350000021CDE900110A460B4600F03AF803B03F
:1003600000BDC1F30A5210B5C1F3130140F2FF33CF
:1003700041F480119A4201DA002010BD40F233436B
:100380009A42A2F2334203DC524200F003F810BD5D
:10039000904010BD202A04DB203A21FA02F000210F
:1003A000704721FA02F3D040C2F120029140084385
:1003B0001946704710B5141E73F1000408DA401C8A
:1003C00041F1000192185B411A4301D120F0010074
:1003D00010BD2DE9F04D92469B4611B1B1FA81F264
:1003E00002E0B0FA80F220329046FFF71AFF04468E
:1003F0000F4640EA0A0041EA0B0153465A460843B9
:1004000013D0114653EA010019D0C8F140025046FA
:10041000FFF7C0FF05460E46504659464246FFF7D5
:1004200000FF084305D0012004E020463946BDE81E
:10043000F08D0020054346EAE0762C4337430A98C6
:100440006305E40AA0EB08000022FD0A44EA4754D1
:100450000A3002D500200146E9E70105101969417B
:10046000DDE9084500196941BDE8F04DA2E700004B
:10047000064C074D06E0E06840F0010394E80700F1
:1004800098471034AC42F6D3FFF782FE58160008A6
:100490007816000810B5094C0122A08881B22068A6
:1004A00000F03FF9012001F0AAF8A088002281B2F3
:1004B0002068BDE8104000F034B90000540000206E
:1004C0008870102242EA102048700020087070479F
:1004D000FEE70000042805D203490A180121002084
:1004E00000F0A8BF70470000100000207047000017
:1004F00010B5044651EC100BFFF733FFFFF724FF54
:100500009FED071B53EC112BFFF7ACFEFFF729FF04
:10051000E070010AA170010C6170000E207010BD26
:1005200095D626E80B2E21402DE9F84FDFF8BCA127
:100530000022012503264FF00F090AF1040BAAF14E
:10054000040E00BF0B6805FA02F42340A34270D1E9
:100550000F7907F00307012F01D0022F16D187680A
:100560004FEA420806FA08FC27EA0C07D1F80CC04B
:100570000CFA08FC4CEA070CC0F808C04768A7430F
:100580000C79C4F3001494403C4344600C79E44378
:10059000A4070AD0C4684FEA420C06FA0CF7BC4321
:1005A0008F6807FA0CF72743C7600C7904F003043F
:1005B000022C12D1D40800EB840CDCF82040570741
:1005C000FF0E09FA07F824EA0804D1F8108008FAA7
:1005D00007F848EA0408CCF8208004684FEA420C87
:1005E00006FA0CF7BC430F7907F0030707FA0CF77C
:1005F000274307604C6814F4403F70D03C4C276898
:1006000047F480472760246822F0030704F48044FD
:100610000094384C07EB040CDCF8084897074FEAC5
:10062000177809FA08F7BC43334FB84202D10027C4
:1006300024E054E0314FB84201D101271EE0304F91
:10064000B84201D1022719E02E4FB84201D1032749
:1006500014E02D4FB84201D104270FE02B4FB842D0
:1006600001D105270AE02A4FB84201D1062705E04B
:10067000284FB84201D1072700E0082707FA08F7FA
:100680002743CCF80878DAF800405746D1F804C080
:100690009C435FEACC2C00D51C433C60DBF8004057
:1006A0005F46D1F804C09C435FEA8C2C00D51C4304
:1006B0003C60DEF800407746D1F804C09C435FEA16
:1006C0008C3C00D51C433C60084F083F3C68D1F887
:1006D00004C09C435FEACC3C00D51C433C60521CE8
:1006E000102AFFF42FAFBDE8F88F0000083C01404E
:1006F0004438024000300140000002400004024043
:1007000000080240000C02400010024000140240A9
:1007100000180240001C02400069084000D001207F
:1007200070470AB1816170470904FBE7014880689E
:1007300070470000000000200248816802781144E0
:1007400081607047000000200B4810B5016841F43B
:1007500000710160016841F480610160016841F449
:1007600080710160032000F061F80F2000F006F8AE
:1007700000F024F8002010BD003C024070B50D4D83
:1007800004464FF47A712878B1FBF0F00A49096801
:10079000B1FBF0F000F0DCFA48B9102C07D20022CF
:1007A0002146501E00F022F800206C6070BD012030
:1007B00070BD0000000000200C0000200A4808B5B1
:1007C000016841F480410160006800F480400090BD
:1007D0000548001F016841F080510160006800F089
:1007E0008050009008BD000044380240F0B40E4B29
:1007F0001B680C46C3F30223C3F10705042D00D97F
:100800000425191D072901D2002300E0DB1E012663
:1008100006FA05F1491E214099409E40761E164079
:100820003143F0BC00F0CCBE0CED00E0064900F016
:10083000070208684FF6FF03184040EA0220034A07
:1008400010430860704700000CED00E00000FA055E
:100850002DE9F0470E46050065D0DFF81481D8F881
:100860000000F7B200F00700B04207D288F800702D
:10087000D8F8000000F00700B04254D128683D4C81
:10088000810712D5400703D5206840F4E05020606E
:100890002878000703D5206840F460402060206875
:1008A000A96820F0F000084320602878C0072DD008
:1008B000304968680839012812D0022813D003286B
:1008C00011D00968890700292DDA216821F0030178
:1008D00001432160FFF72AFF814641F2883A0EE08A
:1008E00009688903EFE709688901ECE7FFF71EFF54
:1008F000A0EB0901514502D90320BDE8F08720682B
:10090000696800F00C00B0EB810FEFD1D8F800104F
:10091000404601F00701B14207D90770006800F0B6
:100920000700B04201D00120E7E72878400705D54D
:100930002068E96820F4E050084320602878000728
:1009400006D52068296920F4604040EAC100206093
:1009500000F018F82168084AC1F30311515CC8403F
:100960000649086006480068FFF708FF0020C4E752
:10097000003C024008380240481600080C000020E5
:1009800004000020154810B5006810F00C0214484F
:1009900013D04110042A0FD0082A0ED10F4C241F67
:1009A0002268236802F03F025B0207D52068C0F38B
:1009B0008810A0FB010106E0084610BD2168C1F3C4
:1009C0008811A1FB00010023FFF7FAFB2168C1F3A6
:1009D0000141491C4900B0FBF1F010BD083802404C
:1009E0000024F4002DE9F84F04006ED02078DFF8E1
:1009F0004C93C007A9F104054AD009F1040001682D
:100A0000C1F38101012908D00068C0F381000228E8
:100A10000AD1D9F80000400206D52868800337D5EE
:100A200060680028E1D033E06068B0F5803F10D006
:100A3000B0F5A02F286810D020F4803028602868F6
:100A400020F4802028606068A8B1FFF76FFE06469A
:100A50000DE0286840F48030F4E740F480202860FE
:100A6000F7E700BFFFF762FE801B642873D8286891
:100A70008003F7D50CE0FFF759FE064605E000BFFE
:100A8000FFF754FE801B6428F0D828688003F7D451
:100A90002078DFF8AC8280074FF0000A3ED5A748E7
:100AA000001D016811F00C0F08D00068C0F3810030
:100AB00002280BD1D9F80000400207D4286880072B
:100AC00016D5E068012800D112E033E1E068B8B142
:100AD0000120C8F80000FFF729FE064605E000BF28
:100AE000FFF724FE801B0228C0D828688007F7D5AE
:100AF0002868216920F0F80040EAC10028600DE074
:100B0000C8F800A0FFF712FE064604E0FFF70EFE4D
:100B1000801B02281FD828688007F7D42078000798
:100B200022D5864F87486169703771B10121016014
:100B3000FFF7FCFD064604E0FFF7F8FD801B0228E6
:100B400009D838688007F7D50EE0C0F800A0FFF795
:100B5000EDFD064605E082E0FFF7E8FD801B022878
:100B60007DD838688007F7D42078400768D5DFF84B
:100B7000CCB100270BF13C0BDBF80000C0000BD41C
:100B8000DBF8001041F08051CBF80010DBF80000DA
:100B9000012700F0805000906B4E3068C00510D4E3
:100BA000306840F480703060FFF7C0FD009005E0D1
:100BB000FFF7BCFD0099401A022850D83068C005E4
:100BC000F6D55E4EA0686C3601280FD00528306837
:100BD00010D020F001003060306820F00400306058
:100BE000A068B8B1FFF7A2FD00900FE0306840F0B8
:100BF0000100F4E740F004003060F7E7FFF796FDEE
:100C00000099411A41F28830814266D830688007E5
:100C1000F4D50EE0FFF78AFD009007E0FFF786FDB0
:100C20000099411A41F28830814256D830688007D5
:100C3000F4D42FB1DBF8001021F08051CBF8001074
:100C4000A069C8B33D49091D0968C1F381010229A2
:100C50004AD00228504607D0C8F8600000E03CE0C7
:100C6000FFF764FD04463BE04746C8F86000FFF725
:100C70005DFD064605E000BFFFF758FD801B02281A
:100C80002BD828688001F7D4D4E907010843A16A6A
:100C90002E4A490802EB0141626A41EA8211084387
:100CA00094F82C1040EA0161C9F800100120386660
:100CB000FFF73CFD044606E03EE000BFFFF736FDCF
:100CC000001B022809D828688001F7D534E000BF4E
:100CD000FFF72CFD001B022802D90320BDE8F88F86
:100CE00028688001F4D427E00128F7D0D9F8000063
:100CF000E26900F4800191421CD1226A00F03F01B8
:100D0000914217D147F6C071626A0140B1EB821F70
:100D100010D1A26A4FF0FF3300F4403103EB5202CE
:100D2000B1EB024F06D194F82C1000F07060B0EBDC
:100D3000016F01D00120D1E70020CFE70438024045
:100D400000004742800E4742007000400000FFFF55
:100D500010B5401EB0F1807F01D3012010BD4FF0CF
:100D6000E02460610F21601700F02AFC0020A061E0
:100D700007202061002010BDFEE70000304810B5BC
:100D80008188006889B20022FFF7CBFC2C48012241
:100D900018308188006889B2FFF7C3FC2848002218
:100DA00010308188006889B2FFF7BBFC244800221C
:100DB00020308188006889B2FFF7B3FC2048002208
:100DC00028308188006889B2FFF7ABFC1C480022FC
:100DD00030308188006889B2FFF7A3FC18480022F0
:100DE00038308188006889B2FFF79BFC14480022E4
:100DF00040308188006889B2FFF793FC10480022D8
:100E000020388188006889B2FFF78BFC0C480022EB
:100E100018388188006889B2FFF783FC08480022EF
:100E200010388188006889B2FFF77BFC04480838D5
:100E3000002281880068BDE8104089B2FFF771BCCC
:100E40003400002010B50D4C0022A08881B220682B
:100E5000FFF767FC012000F0D2FBA088012281B2DD
:100E60002068FFF75EFC1E2000F0C9FBA08800226E
:100E700081B22068BDE81040FFF753BC3C00002061
:100E80001CB528A00068009027A000680190FFF71B
:100E900075FFFFF7D7FF6A460321012000F0CAFA69
:100EA000032101AA084600F0C5FA204CA08981B2AE
:100EB000032000F06FFB208881B2002000F06AFB65
:100EC000A08881B2012000F065FB208981B2022058
:100ED00000F060FB164C0020216800F03DFB012073
:100EE000616800F039FB0220A16800F035FB0320A7
:100EF000E16800F031FB1034A08981B2032000F0DA
:100F000015FB208881B2002000F010FBA08881B280
:100F1000012000F00BFB208981B2022000F006FBCB
:100F20001CBD0000D3000000000300009C00002056
:100F30007C0000202DE9F04387B014216846FFF7BC
:100F400086F924480024016841F0800101600168AD
:100F500001F080010591016841F002010160016822
:100F600001F002010591016841F00801016001688A
:100F700001F008010591016841F00101016000687C
:100F8000DFF8548000F001004FF47845059000220E
:100F900029464046FFF7C5FBDFF840904FF47F47F6
:100FA000002239464846FFF7BCFB00950226012582
:100FB0000396CDE9015469464046FFF7B5FA00971C
:100FC0000396CDE9015469464846FFF7ADFA07B0EC
:100FD000BDE8F0833038024000040240000C0240BB
:100FE000FEE7FEE77047000010B50C46FFF7ACF9CE
:100FF0009FED051B53EC112BFFF734F9FFF7B1F907
:101000006070000A207010BD012FC1166CC14640EF
:101010002DE9F74FDFF834A189460025BAF804100E
:1010200040F0800686B089B22A46DAF80000FFF761
:1010300078FBAAF108040022A08881B22068FFF79B
:1010400070FB202000F0DBFAA4F13008A088002219
:1010500081B22068FFF765FB3006B8F80410D8F8B5
:10106000000089B201D5012200E00022FFF759FB00
:10107000A088012281B22068FFF753FB7006060E9C
:10108000022000F0BCFA6D1CEDB2082DDED3A08862
:10109000002281B22068FFF744FB14216846FFF765
:1010A000D6F84FF48040009000204FF0020BCDE9BD
:1010B000020B019069462648FFF736FA202000F01F
:1010C0009EFA002528E000273E467806070EA088F5
:1010D000012281B22068FFF724FBB8F80410D8F889
:1010E000000089B2FFF718FB01282CD007F0FE079B
:1010F000A088002281B22068FFF713FB761CF6B2AD
:10110000082EE2D3A088002281B22068FFF709FBF5
:10111000089847556D1CEDB24D45D4D3202000F002
:101120006EFABAF80410012289B2DAF80000FFF76B
:10113000F8FA0120CDE9010B69460548FFF7F4F9FB
:1011400009B0BDE8F08F47F00107D1E74C0000205F
:1011500000040240704700002DE9FF4F92462DED3C
:10116000028B8DB00D46DDE91C848146FFF7B2F994
:10117000DFF8FCB15FEA090007D001280DD0022892
:1011800013D0B9F1030F20D117E0BBF804000022FF
:1011900081B2DBF80000FFF7C4FA7548002208307E
:1011A0008188006889B2FFF7BCFA714800221030CC
:1011B0008188006889B2FFF7B4FA6D4800221830C0
:1011C0008188006889B2FFF7ACFA0027032109AAD9
:1011D00008460997FFF71CFF9DF824009DF826108C
:1011E00040F080008DF804009DF8250040F040009C
:1011F0008DF805008DF806101CB140F080008DF8C8
:1012000005005CA0032100680B9001AA084600F0CD
:1012100011F90BAA0321012000F00CF92846FFF771
:1012200093F89FED558B53EC182BFFF71BF8FFF746
:1012300098F806465046FFF787F853EC182BFFF74F
:1012400011F8FFF78EF805461298FFF77DF853EC7A
:10125000182BFFF707F8FFF784F8044608F0FF00A3
:10126000FFF772F89FED461B53EC112BFEF7FAFFC8
:10127000FFF777F8804606978DF81B60300A8DF8E7
:101280001A00300C8DF81900300E8DF8180004216A
:101290000797009706AA084600F0CCF88DF81F5073
:1012A000280A8DF81E00280C8DF81D00280E8DF8D8
:1012B0001C0007AA04210A2000F0BCF88DF80340A6
:1012C0004FEA142A8DF802A0250C8DF80150260E45
:1012D0008DF800606A460421082000F0ABF80897FA
:1012E0008DF823408DF822A08DF821508DF82060D4
:1012F00008AA0421092000F09DF80A978DF829809A
:101300008DF828800AAA0221072000F093F85FEAEE
:10131000090007D001280DD0022813D0B9F1030F1E
:1013200020D117E0BBF80410012289B2DBF80000DD
:10133000FFF7F7F90E48012208308188006889B26A
:10134000FFF7EFF90A48012210308188006889B25E
:10135000FFF7E7F90648012218308188006889B252
:10136000FFF7DFF90DB0BDEC028BBDE8FF8F000089
:101370005C000020D300000095D626E80B2E21400B
:10138000000000000000C03FFFF7D6B930B593B0B1
:1013900030216846FEF75BFF14210CA8FEF757FFCB
:1013A0001D480025016841F080510160006800F08F
:1013B000805011901948016841F480410160006833
:1013C000022400F48040119001200090000401905C
:1013D0008001CDE9064008AA0420A82182E8130074
:1013E0000B906846FFF7FEFA08B172B6FEE70CA94B
:1013F0000F2081E831004FF4A0500F904FF480503F
:10140000109005210CA8FFF723FA002801D072B62E
:10141000FEE713B030BD00004038024000700040CD
:101420000248016841F470010160704788ED00E0F6
:10143000FEE700002DE9F05F3B4C05468946A08899
:101440009346002681B232462068FFF76AF904F11C
:10145000080A0022BAF80410DAF8000089B2FFF78F
:1014600060F9A4F13008A088002281B22068FFF75B
:1014700058F92806B8F80410D8F8000089B201D548
:10148000012200E00022FFF74CF9A088012281B27E
:101490002068FFF746F96806050E022000F0AFF855
:1014A000761CF6B2082EDED3A088002281B2206816
:1014B000FFF737F900252BE01BF805700026A08800
:1014C000002281B22068FFF72CF93806B8F8041022
:1014D000D8F8000089B201D5012200E00022FFF710
:1014E00020F9A088012281B22068FFF71AF9780656
:1014F000070E022000F083F8761CF6B2082EDED329
:10150000A088002281B22068FFF70BF96D1CEDB2B4
:101510004D45D1D3BAF80410DAF80000BDE8F05F09
:1015200089B20122FFF7FDB84400002008B50A4641
:101530000346B1F5806F00D3722200200090694607
:101540001046FEF7BDFF1846FEF7C4FF6A460321AA
:101550000620FFF76FFF08BD38B504460B4A481E4A
:10156000904200D30A49002000900846FEF7ECFEA6
:1015700041EC100B6846FEF7BBFF2046FEF7AAFFC2
:1015800004216A460846FFF755FF38BD0065CD1DAA
:1015900052BF010038B50A460446B1F5B47F00D306
:1015A00000220020009069461046FFF71DFD2046EE
:1015B000FEF790FF6A4602210520FFF73BFF38BD8A
:1015C0000907090E002804DB00F1E02080F8001470
:1015D000704700F00F0000F1E02080F8141D704704
:1015E00002E008C8121F08C1002AFAD170477047EC
:1015F000002001E001C1121F002AFBD1704700EB5F
:1016000040008000401EFDD2704700001CB5FFF76F
:101610009BF8FFF7BBFEFFF78DFCFFF731FCFEF7F1
:1016200039FF00210648CDE900010123054A4FF4A6
:101630007A710220FFF790FDFEF72CFFFEE7000015
:1016400080841E00404B4C000000000000000000A1
:1016500001020304060708097816000800000020AC
:101660009C000000E0150008141700089C000020F2
:1016700014040000F0150008010000001000000034
:10168000000000000024F40010204080000402400C
:10169000004000000004024000100000000402406E
:1016A000000800000004024000200000000C02407E
:1016B00000800000000C02400020000000040240F6
:1016C00000800000000C024000020000000C0240FC
:1016D00000080000000C024000400000000C024026
:1016E00000100000000C024000040000000C02404A
:1016F00000010000E8030000E8030000E803000028
:10170000E8030000FF030000FF030000FF030000E8
:04171000FF030000D3
:040000050800018965
:00000001FF
