:020000040800F2
:10000000E84700209D0100089B210008511E0008C0
:100010009921000805090008D32600080000000007
:100020000000000000000000000000009F21000808
:10003000C5090008000000009D210008A12100085A
:10004000B7010008B7010008B7010008B7010008B0
:10005000B7010008B7010008B7010008B7010008A0
:10006000B7010008B7010008B7010008B701000890
:10007000B7010008B7010008B7010008B701000880
:10008000B7010008B7010008B7010008B701000870
:10009000B7010008B7010008B7010008B701000860
:1000A000B7010008B7010008B7010008B701000850
:1000B000B7010008B7010008B7010008B701000840
:1000C000B7010008B7010008B7010008B701000830
:1000D000B7010008B7010008B7010008B701000820
:1000E000B7010008B7010008B7010008B701000810
:1000F000B7010008B7010008B7010008B701000800
:10010000B7010008B7010008B7010008B7010008EF
:10011000B7010008B7010008B7010008B7010008DF
:1001200009090008B701000815090008B70100080F
:10013000B7010008B7010008B7010008B7010008BF
:10014000B7010008B7010008B7010008B7010008AF
:10015000B7010008B7010008B7010008B70100089F
:10016000B7010008B7010008B7010008B70100088F
:10017000B7010008B7010008B7010008000000003F
:10018000B7010008B7010008DFF80CD000F0CCFA86
:100190000048004755300008E847002006488047DF
:1001A00006480047FEE7FEE7FEE7FEE7FEE7FEE75C
:1001B000FEE7FEE7FEE7FEE73922000889010008B6
:1001C0002DE9F05F0546002092469B46884606468C
:1001D000814640241BE0284641464746224600F01F
:1001E0001DFA53465A46C01A914110D3114618467B
:1001F000224600F016F82D1A67EB01084F462246FA
:100200000120002100F00DF817EB00094E41201EDF
:10021000A4F10104DFDC484631462A464346BDE8E6
:10022000F09F202A04DB203A00FA02F100207047F8
:100230009140C2F1200320FA03F319439040704724
:10024000202A06DBCB17203A41FA02F043EAE0739A
:1002500006E041FA02F3D040C2F120029140084387
:1002600019467047D2B201E000F8012B491EFBD2BB
:1002700070470022F6E710B513460A4604461946B1
:10028000FFF7F0FF204610BD2DE9FE4F804681EAC2
:100290000300C00F0C46009021F0004123F0004500
:1002A000B8EB0200A94105D24046214690461C46C3
:1002B0000B46024623F00040104347D0270DC7F3FA
:1002C0000A00C3F30A510290401A019040286BDAE9
:1002D000C3F3130040F4801B0098924620B1002322
:1002E000D2EB030A63EB0B0B01985946C0F14002B5
:1002F0005046FFF796FF06460D4650465946019A6E
:10030000FFF79EFF10EB08006141002487EA1152BD
:1003100084EAE7731A4340D0009A62B3019A012A33
:100320004FEA075215DC001B61EB02014FF000425F
:1003300002EA0752CDE90042001C41F58011324625
:100340002B4600F08AF903B0BDE8F08F4046214605
:10035000F9E7001B61EB0201001C41F58013001856
:100360005B412018A2F5001747EB030140EAD57066
:10037000B6196D4111E06D084FEA360645EAC075C1
:100380004FEA0752001B61EB0201001C41F580118E
:1003900049084FEA30000019514132462B4603B05C
:1003A000BDE8F04F00F04AB9009801224000002358
:1003B000D0EB020263EBE073009821464FEAE07451
:1003C000B8EB000061EB0401E9E783F000435BE771
:1003D00081F0004158E72DE9FE4F81EA030404F063
:1003E000004421F0004100944FF0000B23F0004343
:1003F00050EA01045ED052EA03045BD0C3F30A540E
:10040000C1F30A552C44A4F2F3340194A0FB025426
:10041000C1F3130141F48011C3F3130343F48013B8
:1004200001FB024400FB034E840A970A44EA81540C
:1004300047EA8357A4FB076802958D0A05FB0785E9
:100440004FEA932C04FB0C542705029D4FEA0658F3
:1004500047EA1637B5EB08056EEB070C870E920ED0
:1004600047EA811742EA8312A7FB0201B6EB0B01B0
:1004700064EB00042B0D43EA0C335E1844EB1C5074
:10048000DA465146E7FB0201C5F313044FEA0B338A
:1004900043EA14534FEA0432019C43EA0603A4F1F1
:1004A0000C040294009CCDE900B400F0D6F803B02F
:1004B000BDE8F08F00200146F9E72DE9F04D81EA13
:1004C000030404F0004B21F0004514464FF0000AED
:1004D00023F0004150EA050220D054EA01021DD069
:1004E000C5F30A570246C5F31303C1F31300C1F362
:1004F0000A5640F4801543F48013A7EB0608101B3E
:10050000D64608F2FD3873EB050002D308F1010866
:1005100001E092185B41B8F1000F03DA00200146B8
:10052000BDE8F08D00204FF48011064684460EE0B1
:10053000171B73EB050705D3121B63EB050306437B
:100540004CEA010C49084FEA300092185B4150EA2E
:100550000107EDD152EA030012D082EA040083EAD7
:100560000501084305D0101BAB4106D20122002330
:1005700006E000224FF0004302E06FF0010253104A
:100580001AEB06004CEB085110EB0A0041EB0B0193
:10059000BDE8F04D00F052B800F0004230F00040ED
:1005A0000AD0C10D01F56071C0F3160042EA015195
:1005B000C208400711437047002001467047000001
:1005C00030B5041E71F1000404DB4FF000444042DA
:1005D00064EB0101141E73F1000405DB1C464FF0AF
:1005E0000043524263EB0403994208BF904230BD7E
:1005F00030B50B46014600202022012409E021FAF3
:1006000002F59D4205D303FA02F5491B04FA02F5EF
:100610002844151EA2F10102F1DC30BD202A04DBC2
:10062000203A21FA02F00021704721FA02F3D0406B
:10063000C2F12002914008431946704710B5141EBC
:1006400073F1000408DA401C41F1000192185B418B
:100650001A4301D120F0010010BD2DE9F04D924662
:100660009B4611B1B1FA81F202E0B0FA80F2203279
:100670009046FFF7D6FD04460F4640EA0A0041EADD
:100680000B0153465A46084313D0114653EA010062
:1006900019D0C8F140025046FFF7C0FF05460E468C
:1006A000504659464246FFF7BCFD084305D001209D
:1006B00004E020463946BDE8F08D0020054346EAB7
:1006C000E0762C4337430A986305E40AA0EB080060
:1006D0000022FD0A44EA47540A3002D500200146B0
:1006E000E9E7010510196941DDE90845001969418B
:1006F000BDE8F04DA2E7C1F30A52C1F3130140F285
:10070000FF3341F480119A4202DA0020014670471B
:1007100040F233439A42A2F2334202DC5242FFF7E4
:100720007DBFFFF77EBD0000064C074D06E0E06888
:1007300040F0010394E8070098471034AC42F6D328
:10074000FFF726FD703200089032000810B5014610
:10075000806B026C12F0500F05D0026CD20626D5C9
:1007600000F0EDF910BD016C41F400710164016805
:100770008A6812F0405F17D1027EAAB9CA6A12F4E1
:10078000700F02D08A6852050ED44A6822F0200207
:100790004A60016C21F480710164016CC90403D4C6
:1007A000016C41F00101016400F0B6F910BD806BED
:1007B000C26CBDE810400846104710B5806B402160
:1007C0000164416C41F00401416400F0B8F910BDCE
:1007D00010B5806B00F0B2F910BD0000464910B5AD
:1007E0004A6822F440324A604A6843681A434A60C1
:1007F00001684A6822F480724A6001684A680369A5
:1008000042EA03224A6001684A6822F040724A6064
:1008100001684A6883681A434A6001688A6822F45A
:1008200000628A6001688A68C3681A438A60816AC4
:100830006FF07062D14201688A6822F070628A604B
:1008400001688A680CD0836A1A438A6001688A68E2
:1008500022F040528A6001688A68C36A1A4301E044
:1008600022F040528A6001688A6822F002028A609F
:1008700001688A68037E42EA43028A6090F8201089
:10088000002901684A680FD042F400624A6001689A
:100890004A6822F460424A6001684A68174C436A19
:1008A00004EB43331A4301E022F400624A6001681A
:1008B000CA6A22F47002CA620168CA6A838B104C49
:1008C00004EB03531A43CA6201688A6822F4007277
:1008D0008A6001688A6890F8303042EA43228A6070
:1008E00001688A6822F480628A6001688A684069C7
:1008F00042EA8020886010BD0023014000E0FFFF35
:100900000000F0FFFEE70000014800F071BA0000AF
:1009100000410020014800F06BBA00006041002057
:1009200001681823CAB2103AB2FBF3F2054B6FF319
:100930000901032A9B5CC36500D9091D816508462E
:10094000704700005032000810B5014600208B6946
:100950008A6A4FF0C07453B1B3F5005F15D072B11D
:10096000012A0CD0022A0AD0032A09D104E01AB1C4
:10097000012A06D0022A03D1C96AC90100D5012083
:1009800010BDC96AA142FAD010BD002AF7D0012AD1
:10099000F2D0022AF3D0032AF3D010BD30B5046898
:1009A000256825F480252560046863608368402BF2
:1009B000036803D099600068C26030BD9A60006827
:1009C000C16030BD704772B6FEE7000078B5002404
:1009D000009490F83C20012A19D0012280F83C2094
:1009E0000A6807230568092A13D9EE680A3A02EB58
:1009F000420293409E43EE600B788A680A3B03EB09
:100A000043039A400368DD682A43DA6010E002205D
:100A100078BD2E6902EB420293409E432E610B7813
:100A20008A6803EB43039A4003681D692A431A61ED
:100A30004A681F23072A13D205686E6B521E02EB09
:100A4000820293409E436E630B790A885B1E92B2CA
:100A500003EB83039A4003685D6B2A435A6327E0E4
:100A600005680D2A12D22E6BD21F02EB8202934030
:100A70009E432E630B790A88DB1F92B203EB83033C
:100A80009A4003681D6B2A431A6311E0EE6A0D3A1F
:100A900002EB820293409E43EE620B790A880D3B83
:100AA00092B203EB83039A400368DD6A2A43DA6259
:100AB000164B0568144A9D4206D10D68122D03D1CC
:100AC000556845F48005556005689D4218D10B684E
:100AD000102B01D0112B13D1536843F40003536042
:100AE000096810290CD10A490A4A0968B1FBF2F1D8
:100AF00001EB8101490000E0491E00910029FBD172
:100B000080F83C40002078BD0023014000200140D7
:100B10001400002040420F000068054B0121054AE7
:100B2000984200D11170044B984200D15170704727
:100B30000020014000000020002101407047704764
:100B400070B504004FF0000503D0206C002610B1F2
:100B500007E0012070BD204600F01CF8666484F8B0
:100B60003C60206CC00610D4206C20F4885040F00B
:100B7000020020642046FFF731FE6664206C20F0FE
:100B8000020040F00100206400E0012584F83C6090
:100B9000284670BD2DE9F04387B00646142168460B
:100BA000FFF767FB3748DFF8D8C0143835680024F2
:100BB00034490323344A07154FF400684FF40059B1
:100BC000654529D10D6845F480750D60096801F40B
:100BD00080710591016841F001010160006869467A
:100BE00000F00100059001208DE81900104600F08A
:100BF00071FA274D254805F10C0CC5E90004AC60DD
:100C00008CE89003EC612C6228466C6230E0B5639E
:100C1000AE6307B0BDE8F083DFF878C06545F8D172
:100C20000D6845F400750D60096801F400710591C7
:100C3000016841F0010101600068694600F00100AF
:100C4000059002208DE81900104600F043FA104D7F
:100C50000E486035303028604FF00070C5E901045F
:100C600005F10C0C28468CE89003EC612C626C6258
:100C700000F08EF90028CAD0FFF7A5FEC7E70000F4
:100C8000002001404438024000000240106402404D
:100C90000041002000210140F8B50E460021044625
:100CA000009190F83C0013460A46012807D0012025
:100CB00084F83C0020688568ED0702D011E002202E
:100CC000F8BD856845F0010585604048404D0068E5
:100CD000B0FBF5F000EB400000E0401E0090002863
:100CE000FBD120688568ED0503D5856825F48075FE
:100CF000856020688568ED075DD0226C40F2016553
:100D0000AA4342F4807222644068400505D5206CF5
:100D100020F4005040F480502064206CC00404D5BE
:100D2000606C20F00600606400E0616484F83C10B0
:100D3000A16B2948274DC863A16B28480864A16BA3
:100D40002748C86421686FF0220008602068416865
:100D500041F0806141602068816841F48071816068
:100D6000216832464C31A06B00F07CF9024668687D
:100D70001C49C006206806D0884224D1816811F041
:100D8000405F13D01FE08842F8D0174B984203D140
:100D9000D1F80433DB06F1D0144B984213D1D1F8CB
:100DA000041301F01F011029E8D30CE0816841F021
:100DB0008041816007E0206C40F010002064606C8E
:100DC00040F0010060641046F8BD000014000020EF
:100DD00040420F00002301404D070008D1070008E2
:100DE000BB07000800200140002101400022014013
:100DF0002DE9F84304464FF00009CDF80090634810
:100E00004FF41651A56D0068B0FBF1F72E6894F809
:100E10005C10082000FA01F131420FD021680A6805
:100E200052070BD50A6822F004020A6094F85C109D
:100E30008840A860606D40F00100606594F85C1027
:100E40004FF0010808FA01F0304208D021684969E2
:100E5000090604D5A860606D40F00200606594F852
:100E60005C1004208840304208D021680968890756
:100E700004D5A860606D40F00400606594F85C10D3
:100E800010208840304218D021680968090714D51D
:100E9000A86020680168490304D50068000308D5EC
:100EA000A16C07E00168C90503D4016821F00801BD
:100EB0000160216C09B12046884794F85C1020201D
:100EC0008840304231D021680968C9062DD5A86014
:100ED00094F8350005282068016806D0490347D5F5
:100EE000006800031DD4616C1CE021F01601016054
:100EF0002068416921F080014161206C08B9A06C33
:100F000020B12068016821F00801016094F85C10AC
:100F10003F208840A86084F8358084F83490216DA3
:100F20001FE0E16B09B120468847606D00282BD097
:100F3000606DC00714D0052084F835002068016872
:100F400021F0010101600098401C0090B84203D8D4
:100F500020680068C007F6D184F8358084F83490A2
:100F6000E16C002910D001B02046BDE8F0430847ED
:100F70000168C905D5D4016821F01001016084F829
:100F8000358084F83490CCE7BDE8F8831400002065
:100F90002DE9F041044600F09BF906465CB10220C1
:100FA00084F83500002584F834502068016821F069
:100FB000010101600DE00120BDE8F08100F088F939
:100FC000801B052805D920206065032084F83500A2
:100FD000F2E720680068C007F0D122681168204855
:100FE0000140D4E901031843D4E9033633431843DD
:100FF00063691843A3691843E3691843236A1843D4
:101000000843616A042903D1D4E90B131943084347
:10101000106020684069666A20F0070130460E4380
:10102000012704280CD1A06A0643E06A40B120469B
:10103000FFF78AFC20B14020606584F83570BAE77C
:10104000206846612046FFF76BFC94F85C203F2146
:1010500091408160656584F835700020ACE7000040
:101060003F8010F02DE9F0410446866D90F8340081
:10107000002501280DD0012084F8340094F8357043
:101080000020012F07D084F8340002252846BDE84F
:10109000F0810220FBE7022784F835706065204666
:1010A000FFF77CFC94F85C103F208840B06020681B
:1010B000016841F016010160206C20B120680168D0
:1010C00041F0080101602068016841F00101016000
:1010D000DCE700002DE9F84FDFF8BCA10022012574
:1010E00003264FF00F090AF1040BAAF1040E00BF0A
:1010F0000B6805FA02F42340A34270D10F7907F080
:101100000307012F01D0022F16D187684FEA42084A
:1011100006FA08FC27EA0C07D1F80CC00CFA08FC08
:101120004CEA070CC0F808C04768A7430C79C4F321
:10113000001494403C4344600C79E443A4070AD073
:10114000C4684FEA420C06FA0CF7BC438F6807FAF2
:101150000CF72743C7600C7904F00304022C12D16A
:10116000D40800EB840CDCF820405707FF0E09FA86
:1011700007F824EA0804D1F8108008FA07F848EACA
:101180000408CCF8208004684FEA420C06FA0CF7F9
:10119000BC430F7907F0030707FA0CF727430760F2
:1011A0004C6814F4403F70D03C4C276847F48047AB
:1011B0002760246822F0030704F480440094384C2C
:1011C00007EB040CDCF8084897074FEA177809FA90
:1011D00008F7BC43334FB84202D1002724E054E063
:1011E000314FB84201D101271EE0304FB84201D142
:1011F000022719E02E4FB84201D1032714E02D4FEA
:10120000B84201D104270FE02B4FB84201D1052786
:101210000AE02A4FB84201D1062705E0284FB8421C
:1012200001D1072700E0082707FA08F72743CCF881
:101230000878DAF800405746D1F804C09C435FEACA
:10124000CC2C00D51C433C60DBF800405F46D1F855
:1012500004C09C435FEA8C2C00D51C433C60DEF844
:1012600000407746D1F804C09C435FEA8C3C00D52F
:101270001C433C60084F083F3C68D1F804C09C43C5
:101280005FEACC3C00D51C433C60521C102AFFF4A2
:101290002FAFBDE8F88F0000083C01404438024001
:1012A00000300140000002400004024000080240FB
:1012B000000C0240001002400014024000180240DE
:1012C000001C02400AB1816170470904FBE700007D
:1012D00001488068704700000800002002488168CB
:1012E0000278114481607047080000200B4810B557
:1012F000016841F400710160016841F4806101609E
:10130000016841F480710160032000F06FF80F2044
:1013100000F006F800F024F8002010BD003C024068
:1013200070B50D4D04464FF47A712878B1FBF0F09A
:101330000A490968B1FBF0F000F00AFB48B9102C2B
:1013400007D200222146501E00F030F800206C60C9
:1013500070BD012070BD00000800002014000020B6
:101360000A4808B5016841F480410160006800F452
:10137000804000900548001F016841F080510160E5
:10138000006800F08050009008BD00004438024022
:10139000002809DB00F01F02012191404009800074
:1013A00000F1E020C0F8001170470000F0B40E4BCF
:1013B0001B680C46C3F30223C3F10705042D00D9B3
:1013C0000425191D072901D2002300E0DB1E012698
:1013D00006FA05F1491E214099409E40761E1640AE
:1013E0003143F0BC01F0A0B90CED00E0064900F07B
:1013F000070208684FF6FF03184040EA0220034A3C
:1014000010430860704700000CED00E00000FA0592
:101410002DE9F0470E46050065D0DFF81481D8F8B5
:101420000000F7B200F00700B04207D288F8007061
:10143000D8F8000000F00700B04254D128683D4CB5
:10144000810712D5400703D5206840F4E0502060A2
:101450002878000703D5206840F4604020602068A9
:10146000A96820F0F000084320602878C0072DD03C
:10147000304968680839012812D0022813D003289F
:1014800011D00968890700292DDA216821F00301AC
:1014900001432160FFF71CFF814641F2883A0EE0CC
:1014A00009688903EFE709688901ECE7FFF710FF96
:1014B000A0EB0901514502D90320BDE8F08720685F
:1014C000696800F00C00B0EB810FEFD1D8F8001084
:1014D000404601F00701B14207D90770006800F0EB
:1014E0000700B04201D00120E7E72878400705D582
:1014F0002068E96820F4E05008432060287800075D
:1015000006D52068296920F4604040EAC1002060C7
:1015100000F038F82168084AC1F30311515CC84053
:101520000649086006480068FFF7FAFE0020C4E795
:10153000003C0240083802405832000814000020E5
:101540000C0000200448054900680968044AC1F3FA
:101550008221515CC84070471400002008380240C6
:10156000683200080448054900680968044AC1F364
:101570004231515CC84070471400002008380240D6
:1015800068320008154810B5006810F00C021448C5
:1015900013D04110042A0FD0082A0ED10F4C241F5B
:1015A0002268236802F03F025B0207D52068C0F37F
:1015B0008810A0FB010106E0084610BD2168C1F3B8
:1015C0008811A1FB00010023FEF7FAFD2168C1F399
:1015D0000141491C4900B0FBF1F010BD0838024040
:1015E0000024F4002DE9F84F04006ED02078DFF8D5
:1015F0004C93C007A9F104054AD009F10400016821
:10160000C1F38101012908D00068C0F381000228DC
:101610000AD1D9F80000400206D52868800337D5E2
:1016200060680028E1D033E06068B0F5803F10D0FA
:10163000B0F5A02F286810D020F4803028602868EA
:1016400020F4802028606068A8B1FFF741FE0646BC
:101650000DE0286840F48030F4E740F480202860F2
:10166000F7E700BFFFF734FE801B642873D82868B3
:101670008003F7D50CE0FFF72BFE064605E000BF20
:10168000FFF726FE801B6428F0D828688003F7D473
:101690002078DFF8AC8280074FF0000A3ED5A748DB
:1016A000001D016811F00C0F08D00068C0F3810024
:1016B00002280BD1D9F80000400207D4286880071F
:1016C00016D5E068012800D112E033E1E068B8B136
:1016D0000120C8F80000FFF7FBFD064605E000BF4B
:1016E000FFF7F6FD801B0228C0D828688007F7D5D1
:1016F0002868216920F0F80040EAC10028600DE068
:10170000C8F800A0FFF7E4FD064604E0FFF7E0FD9F
:10171000801B02281FD828688007F7D4207800078C
:1017200022D5864F87486169703771B10121016008
:10173000FFF7CEFD064604E0FFF7CAFD801B022836
:1017400009D838688007F7D50EE0C0F800A0FFF789
:10175000BFFD064605E082E0FFF7BAFD801B0228C8
:101760007DD838688007F7D42078400768D5DFF83F
:10177000CCB100270BF13C0BDBF80000C0000BD410
:10178000DBF8001041F08051CBF80010DBF80000CE
:10179000012700F0805000906B4E3068C00510D4D7
:1017A000306840F480703060FFF792FD009005E0F3
:1017B000FFF78EFD0099401A022850D83068C00506
:1017C000F6D55E4EA0686C3601280FD0052830682B
:1017D00010D020F001003060306820F0040030604C
:1017E000A068B8B1FFF774FD00900FE0306840F0DA
:1017F0000100F4E740F004003060F7E7FFF768FD10
:101800000099411A41F28830814266D830688007D9
:10181000F4D50EE0FFF75CFD009007E0FFF758FD00
:101820000099411A41F28830814256D830688007C9
:10183000F4D42FB1DBF8001021F08051CBF8001068
:10184000A069C8B33D49091D0968C1F38101022996
:101850004AD00228504607D0C8F8600000E03CE0BB
:10186000FFF736FD04463BE04746C8F86000FFF747
:101870002FFD064605E000BFFFF72AFD801B02286A
:101880002BD828688001F7D4D4E907010843A16A5E
:101890002E4A490802EB0141626A41EA821108437B
:1018A00094F82C1040EA0161C9F800100120386654
:1018B000FFF70EFD044606E03EE000BFFFF708FD1F
:1018C000001B022809D828688001F7D534E000BF42
:1018D000FFF7FEFC001B022802D90320BDE8F88FA9
:1018E00028688001F4D427E00128F7D0D9F8000057
:1018F000E26900F4800191421CD1226A00F03F01AC
:10190000914217D147F6C071626A0140B1EB821F64
:1019100010D1A26A4FF0FF3300F4403103EB5202C2
:10192000B1EB024F06D194F82C1000F07060B0EBD0
:10193000016F01D00120D1E70020CFE70438024039
:1019400000004742800E4742007000400000FFFF49
:1019500010B5401EB0F1807F01D3012010BD4FF0C3
:10196000E02460610F21601700F0DEFE0020A0611E
:1019700007202061002010BD70B590F83C20012A9E
:1019800032D0012480F83C40022280F83D200368D8
:101990005A689D6822F070060A6832435A60134BF9
:1019A00002689A4214D0B2F1804F11D0104B9A4283
:1019B0000ED0104B9A420BD00F4B9A4208D00F4BCF
:1019C0009A4205D00E4B9A4202D00E4B9A4204D155
:1019D000496825F080031943916080F83D4000215B
:1019E00080F83C10084670BD022070BD0000014028
:1019F0000004004000080040000C004000040140CA
:101A0000004001400018004010B5040003D094F8D5
:101A10003D0010B107E0012010BD002084F83C001B
:101A2000204600F01FF8022084F83D00211D2068A8
:101A300000F00AFC012084F8460084F83E0084F897
:101A40003F0084F8400084F8410084F8420084F8A4
:101A5000430084F8440084F8450084F83D000020E9
:101A600010BD000008B500680649884208D1064844
:101A7000016841F002010160006800F0020000907E
:101A800008BD0000000400404038024090F83D10BE
:101A9000012901D001207047022180F83D10006823
:101AA0001149884214D0B0F1804F11D00F498842BB
:101AB0000ED00F4988420BD00E49884208D00E49FB
:101AC000884205D00D49884202D00D49884204D190
:101AD000816801F00701062903D0016841F0010186
:101AE0000160002070470000000001400004004039
:101AF00000080040000C004000040140004001408C
:101B00000018004070B5044690F83C0000250128FC
:101B100017D0012684F83C60022084F83D0020683C
:101B2000826822F0770222F47F428260086850289F
:101B300038D00DDC20284FD005DC90B3102811D10F
:101B40004AE0022070BD302846D040280AD13BE050
:101B500060282FD070280DD0B0F5805F03D0B0F58D
:101B6000005F12D0012584F83D60002084F83C001D
:101B7000284670BDCB68D1E90121206800F0CCFB7C
:101B80002068816841F0770109E0CB68D1E9012143
:101B9000206800F0C1FB2068816841F480418160C9
:101BA000E1E719E0CA684968206800F089FC502123
:101BB000206806E0CA684968206800F092FC60214D
:101BC000206800F0B3FBCEE7CA684968206800F0DF
:101BD00077FC40212068F4E7226801461046F0E7D0
:101BE00010B586B0044614216846FEF742FB0D4945
:101BF0002068884214D10C480021026842F001029A
:101C00000260006800F00100059040200090022072
:101C1000CDE90101CDE9031069460448FFF75AFAFE
:101C200006B010BD00040040303802400000024001
:101C300070B5044690F83C00002501280FD0012023
:101C400084F83C006AB1042A0FD0082A11D00C2A6B
:101C500013D00125002084F83C00284670BD0220E6
:101C600070BD206800F06AFBF4E7206800F096FB86
:101C7000F0E7206800F0C8FBECE7206800F0F8FB14
:101C8000E8E710B5040003D094F83D0010B107E078
:101C9000012010BD002084F83C00204600F01EF812
:101CA000022084F83D00211D206800F0CDFA0120BB
:101CB00084F8460084F83E0084F83F0084F8400031
:101CC00084F8410084F8420084F8430084F844001A
:101CD00084F8450084F83D00002010BD704770B5C1
:101CE000040004D094F84100002510B106E0012062
:101CF00070BD84F84050204600F024F8242084F879
:101D000041002068C16821F40051C160204600F004
:101D100021FC2068016921F490410161206841693A
:101D200021F02A0141612068C16841F40051C1607D
:101D30006564202084F8410084F842006563002037
:101D400070BD000010B586B0044614216846FEF749
:101D500090FA14492068884221D113480021026872
:101D600042F010020260006800F0100005900E487A
:101D70001438026842F001020260006800F00100BD
:101D800005904FF4C06000900220CDE901010320CE
:101D900003900720049069460448FFF79BF906B0BA
:101DA00010BD000000100140443802400000024015
:101DB0002DE9F843044690F84100984616460D4632
:101DC000202802D00220BDE8F88385B17EB1002032
:101DD0006064212084F84100FFF77AFAA6848146E6
:101DE000E684A0682027B0F5805F02D003E00120E0
:101DF000E9E7206910B12E4600250EE000260CE030
:101E00008021204600F02CFCA8B9C6B116F8010BC1
:101E100021684860E08C401EE084E08C4B464FF027
:101E20000002CDF800800028EAD14FF040012046A2
:101E300000F016FC40B184F841700320C3E735F888
:101E4000020BC0F30800E3E784F841700020BAE712
:101E5000FEE70000F8B52D4C06460D46207898B1F7
:101E600000202070B6F90400608081002848FEF749
:101E700000FAB4F90200810025484030FEF7F9F974
:101E80002348A06040306060316821612B46B4F97E
:101E90000220606801F0CCF896ED020AD5ED000A48
:101EA0006B4630EE600A85ED010A2169B4F9022023
:101EB000084601F0BDF895ED010ADFED160A9FED29
:101EC000161AD4E9012160EE200A9DED000A0020D7
:101ED000B4F9025030EE011A236980EE810A0FE056
:101EE00002EB8006D6ED000A03EB800696ED001AA1
:101EF00001EB8006401C40EE010A80B2C6ED000AEC
:101F0000A842EDDBC4E902216160F8BD18000020A1
:101F1000584300206F12833A95BFD6337FB5002413
:101F200015480094019402941249039401604FF4FF
:101F30008031C0E901140461047680F8204009036F
:101F4000C1620125C5614910C460816280F83050CA
:101F50004561FEF7F5FD08B1FEF735FDCDE9004519
:101F6000694605480294FEF731FD002801D0FEF7CE
:101F70002AFD7FBD00200140704000207FB5002475
:101F800015480094019402941249039401604FF49F
:101F90008031C0E901140461047680F8204009030F
:101FA000C1620125C5614910C460816280F830506A
:101FB0004561FEF7C5FD08B1FEF705FD0095CDE9C9
:101FC000015469460448FEF701FD002801D0FEF7E0
:101FD000FAFC7FBD00210140B84000200D4808B543
:101FE000016841F4800101600068002200F4800073
:101FF000009011463820FFF7D9F93820FFF7C8F9CB
:10200000002211463A20FFF7D1F9BDE808403A20F6
:10201000FFF7BEB9303802402DE9F04387B01421F4
:102020006846FEF726F924480024016841F0800143
:102030000160016801F080010591016841F0010132
:102040000160016801F001010591016841F00201A0
:102050000160016801F002010591016841F0080189
:1020600001600068DFF8548000F008004FF4784504
:102070000590002229464046FFF724F9DFF84090FA
:102080004FF47F47002239464846FFF71BF9009579
:10209000022601250396CDE9015469464046FFF723
:1020A00019F800970396CDE9015469464846FFF7B1
:1020B00011F807B0BDE8F083303802400004024058
:1020C000000C024010B58EB00024079408940994C7
:1020D0000A940B941C2168460C94FEF7CAF81F481A
:1020E0001D4901601421C0E901140321C0E9031452
:1020F00080218161FFF788FC08B1FEF764FC4FF492
:102100008050079007A91548FFF7FCFC08B1FEF7BF
:102110005AFC1248FFF7B5FD08B1FEF754FC202029
:10212000CDE90B040BA90D48FFF726FC08B1FEF71B
:102130004AFC5020CDE90004029400226946074879
:102140000494FFF775FD08B1FEF73DFC0348FFF767
:1021500047FD0EB010BD000000040040C04100204B
:102160000C4810B50A4901604FF4E131416000218B
:1021700081600C22C160C0E904128161C161FFF776
:10218000AEFD002803D0BDE81040FEF71CBC10BD1A
:102190000010014008420020FEE7FEE7704770474C
:1021A000FFF79CB830B593B030216846FEF761F870
:1021B00014210CA8FEF75DF81D480025016841F0C8
:1021C00080510160006800F080501190194801684A
:1021D00041F4804101600068022400F480401190C5
:1021E00001200090000401908001CDE9064008AA7A
:1021F0000420A82182E813000B906846FFF7F2F94B
:1022000008B172B6FEE70CA90F2081E831004FF447
:10221000A0500F904FF48050109005210CA8FFF7AC
:10222000F7F8002801D072B6FEE713B030BD000009
:1022300040380240007000400248016841F47001DB
:102240000160704788ED00E0F0B50268274B284D2B
:10225000284E294F294C4FF0804C984209D06045B8
:1022600007D0A84205D0B04203D0B84201D0A04266
:1022700004D122F0700E4A6842EA0E0298421BD046
:10228000604519D0A84217D0B04215D0B84213D03B
:10229000A04211D01A4DA8420ED01A4DA8420BD020
:1022A000194DA84208D0194DA84205D0184DA84292
:1022B00002D0184DA84203D122F44075CA682A43BF
:1022C0004D6922F080022A438D68C5620D688562DF
:1022D000984201D0A04201D109690163016841F02F
:1022E00004010160012141610260F0BD0000014074
:1022F0000004004000080040000C004000040140C1
:1023000000400140004401400048014000180040E6
:10231000001C00400020004010B5846842EA0322FF
:1023200024F47F440A432243826010BD826822F075
:1023300070020A4342F0070181607047F0B5036AFA
:10234000026A22F00102026242688469124E24F09D
:1023500073050C682C4323F002058B682B430D4D4D
:10236000A84201D0B04205D123F00807CB683B4317
:1023700023F00403A84201D0B04205D14D6922F4F4
:10238000407215438A692A43426084614968416307
:102390000362F0BD0000014000040140F0B5026A94
:1023A000036A23F010030362436884690D6824F410
:1023B000E64444EA05248D6822F0200242EA051230
:1023C0000F4D104EA84201D0B04206D1CF6822F086
:1023D000800242EA071222F04002A84201D0B04235
:1023E00007D14D6923F4406343EA85038D6943EACD
:1023F000850343608461496881630262F0BD000027
:102400000000014000040140F0B5026A036A23F4B1
:10241000807303624368C46922F4007224F0730578
:102420000C68124E2C438D6842EA05220E4DA842DC
:1024300001D0B04206D1CF6822F4006242EA0722FE
:1024400022F48062A84201D0B04207D14D6923F442
:10245000405343EA05138D6943EA05134360C461A1
:102460004968C1630262F0BD000001400004014000
:1024700030B5046A026A22F4805202624268C3697B
:102480000D6823F4E64343EA05238D6824F40054E1
:1024900044EA0534084DA84202D0084DA84204D1B0
:1024A0004D6922F4804242EA85124260C361496864
:1024B0000164046230BD00000000014000040140DE
:1024C00010B5036A046A24F001040462846924F0EC
:1024D000F00444EA021423F00A020A43846102620F
:1024E00010BD10B5036A046A24F010040462846904
:1024F00023F0A00324F4704444EA023243EA0111B9
:102500008261016210BD01680C3151E8002F22F494
:10251000907241E80023002BF5D10168143151E895
:10252000002F22F0010241E80023002BF5D1016BBE
:10253000012909D101680C3151E8002F22F0100265
:1025400041E80023002BF5D1202180F84210002122
:102550000163704770B5044600680169E26821F4C0
:102560004051114301612169A068E2690843616932
:10257000114308432168CA6849F20C639A43024335
:10258000CA6020684169A26921F440711143416128
:1025900031492068884202D03049884202D1FEF792
:1025A000E1FF01E0FEF7CEFFE26900231921642577
:1025B0003226B2F5004F626828D0A0FB0101930FCC
:1025C0009200FDF7FDFD0146B0FBF5F06FF018023B
:1025D000504301EB800006EB0010B0FBF5F000F07B
:1025E000F002B1FBF5F002EB0012B1FBF5F06FF079
:1025F0001803584301EB800006EB0010B0FBF5F028
:1026000000F00F0021681044886070BDA0FB01013C
:1026100092185B41FDF7D4FD0146B0FBF5F00201D5
:10262000B1FBF5F06FF01803584301EB800006EBA7
:10263000C000B0FBF5F000F0F80002EB4002B1FB87
:10264000F5F0584301EB800006EBC000B0FBF5F05D
:1026500000F00700D6E70000001001400014014020
:102660002DE9F843984617460D460446089E24E097
:10267000701C22D0FEF72CFEA0EB0800B0421AD846
:10268000CEB12068C168490717D5802D15D0402DDF
:1026900013D00168C94309070FD4016800254068B9
:1026A00000902046FFF72FFF0820606484F8405018
:1026B0000120BDE8F8830320FBE72068006835EAC5
:1026C000000004D00020B842D2D00020F1E7012061
:1026D000F9E7FEE70FB4C92110B503AB0648029A2B
:1026E00000F00CF8044982B2FF23A1F14800FFF783
:1026F0005FFB10BC5DF814FB504200207CB5044623
:1027000000201D46164600290BD0491ECDE9004188
:10271000044B6A462946304600F0E8F8009A00214A
:1027200011707CBD1B3000080907090E002804DB6E
:1027300000F1E02080F80014704700F00F0000F175
:10274000E02080F8141D704702E008C8121F08C17D
:10275000002AFAD170477047002001E001C1121F22
:10276000002AFBD1704700002DE9FF5F82B00021F5
:10277000DDE90430020DDDF840B0034318D044F623
:102780001050A2F2FF3242431514119801281FD0B5
:10279000A5EB0B00401C5FEA000A4FF000064E4F0D
:1027A000DFF83891B046504615D5CAF1000413E061
:1027B000119801244AA3012801D16FEA0B01029864
:1027C000119AC0E90031C0E9024206B0BDE8F09FAD
:1027D000CBF10000DFE704460021404A491842EBF4
:1027E0000450CDE9001012E0E00707D032463B4626
:1027F00040464946FDF7EFFD8046894632463B4656
:1028000010461946FDF7E7FD06460F466410002CFA
:10281000EAD1DDE90401DDE90023BAF1000F06DAAF
:10282000FDF7D9FD42464B46FDF7D5FD05E0FDF726
:1028300044FE42464B46FDF740FE04460E4600224B
:10284000284BFDF7BDFE03D84FF0FF30014607E0EF
:102850000022254B20463146FDF716FDFDF74BFFC4
:10286000102409E0002C0ADB0A220023FDF7A8FC53
:10287000039B30321A55641E50EA0102F2D1641CE7
:10288000039AC4F111031444119A012A03D00122BE
:1028900008430DD10AE0084304D000204FF0110B8B
:1028A000119072E7A3EB0B056D1E0DE05B4504DD97
:1028B0004FF0000205F1010504E003DA4FF00002D9
:1028C000A5F10105002AECD002981199C0E9023166
:1028D000C0E9004579E70000000014400000F03F27
:1028E000300000000000F0430000E03F2DE9FF4F02
:1028F00095B09B468946064600250FE2252877D1EC
:1029000000242746F84A0121059400E0044316F804
:10291000013F203B01FA03F01042F7D130782A281A
:1029200011D06FF02F033078A0F13002092A16D8A9
:10293000059A44F0020402EB820203EB42021044C7
:10294000761C0590EFE759F8042B0592002A03DA6C
:10295000504244F40054059044F00204761C307850
:102960002E2816D116F8010F44F004042A280DD0A1
:102970006FF02F023078A0F13003092B09D807EB54
:10298000870302EB4303C718761CF3E759F8047B6F
:10299000761C30786C280FD006DC4C2817D06828BD
:1029A0000DD06A2814D104E0742810D07A280FD1F1
:1029B0000DE044F400140AE044F4801401E044F40F
:1029C00040147278824202D104F58014761C761C81
:1029D000307866280BD013DC582877D009DC002823
:1029E00075D04528F6D04628F4D047281AD19DE165
:1029F00018E0632835D0642879D0652812D195E194
:102A0000702873D008DC6728F1D069286FD06E2851
:102A10000DD06F2806D1B5E073282CD0752875D05D
:102A2000782874D05A46179990476D1C75E1C4F305
:102A30000250022809D003280DD0D9F8001004282C
:102A40000DD00D6009F1040967E1D9F80010EA170B
:102A5000C1E90052F6E7D9F800100D80F2E70D70D9
:102A6000F0E719F8041B8DF8001000208DF8010024
:102A7000EA46012003E059F804AB4FF0FF3061074C
:102A80004FF0000102D40DE008F101018846B9427F
:102A90000FDA8045F8DB1AF808100029F4D108E0B5
:102AA00008F1010188468142FADB1AF80810002972
:102AB000F6D105985B46A0EB080721463846179AE1
:102AC00000F094FA284400EB080507E04DE029E106
:102AD0000DE01AF8010B5A4617999047B8F1010812
:102AE000F7D25B4621463846179A13E142E00A22A4
:102AF0000092C4F302524FF0000A022A08D059F89B
:102B000004CB032A4FEAEC710AD00DE029E02AE059
:102B100009F1070121F00702F2E802C1914609E03C
:102B20000FFA8CFC4FEAEC71042A03D14FFA8CFCAB
:102B30004FEAEC71002907DA0A460021DCF1000CAB
:102B400061EB02012D2202E0220504D52B228DF833
:102B50000420012203E0E20701D02022F7E790469B
:102B600059E00A2102E010220DE010214FF0000A86
:102B700000910BE010224FF0000A44F004040827F3
:102B8000009203E008224FF0000A0092C4F30252C0
:102B9000022A05D059F804CB0021032A08D009E005
:102BA00009F1070121F00702F2E802C1914605E0B0
:102BB0001FFA8CFC042A01D10CF0FF0C4FF0000826
:102BC000220728D5702806D0009B83F0100353EA13
:102BD0000A0305D00EE040228DF80420012208E00F
:102BE0005CEA010206D030228DF804208DF8050041
:102BF00002229046009B83F0080353EA0A030AD19D
:102C00005CEA010201D1620705D530228DF804206B
:102C10004FF001087F1E582804D034A003900EA85E
:102C200002900DE036A0F9E753466046009AFDF7A2
:102C3000C7FA84460398825C0298401E0290027094
:102C40005CEA0100F0D1029806A9081A00F1200AF6
:102C5000600702D524F4803400E00127574502DDE7
:102C6000A7EB0A0000E0002000EB0A0100900598A5
:102C70004144401A0590E00306D45B462146179A6A
:102C8000059800F0B3F90544002706E001A85A466C
:102C9000C05D179990476D1C7F1C4745F6DBE0032C
:102CA0000CD55B462146179A059800F09FF905441C
:102CB00004E030205A46179990476D1C0099481E31
:102CC00000900029F5DC08E0029802995A46007845
:102CD000491C0291179990476D1CBAF10001AAF1A5
:102CE000010AF1DC65E100000928010030313233CE
:102CF0003435363738396162636465660000000038
:102D00003031323334353637383941424344454621
:102D10000000000000F058F90544761C30780028C7
:102D20007FF4ECAD19B02846BDE8F08F620700D4FF
:102D3000062709F1070222F0070CFCE80223E1460E
:102D400003F000485FEA080C02D00FF2702C0DE08F
:102D50005FEA045C02D50FF2682C07E05FEAC47CEE
:102D600002D00FF2602C01E0AFF2700C4FF0FF3890
:102D700023F00043CDF850C065280CD006DC452870
:102D800009D046281DD047283DD13DE0662818D0FF
:102D900067287ED138E00021112F01DB112000E0EF
:102DA000781CCDE9000106A90EA8FFF7DDFCDDE9DE
:102DB0000F010E9A03910021009207F1010A04917C
:102DC0004DE04FF000400097CDE9011006A90EA894
:102DD000FFF7CAFCDDE90F0203920E9B1199002256
:102DE000DDF80CA00093049211B9791C00EB010AE4
:102DF000B7EB0A0004D4C0F1FF3007F1010A0490D8
:102E0000AAEB0700019044E0012F00DA012700211E
:102E1000112F01DD112000E03846CDE9000106A99F
:102E20000EA8FFF7A1FCDDE90F010E9A0391002126
:102E300004910092BA4621070CD40399514500DA57
:102E40008A46BAF1010F05DD009AAAF10101515C31
:102E5000302908D0B84202DA10F1040F06DA012155
:102E6000CDE9011015E0AAF10101E9E7002805DC30
:102E7000049901440491AAEB000102E0411C514570
:102E800000DD8A460499401A401C01904FF0004032
:102E90000290200704D40198504501DBCDF804804E
:102EA00000208DF84F0002980DF14F07B0F1004F50
:102EB00025D02B200E9002984FF0020800280CDA43
:102EC000404202902D200E9007E00A210298FDF763
:102ED0008FFB3031029007F8011DB8F10001A8F115
:102EE0000108F2DC02980028EFD1791E0E980870D4
:102EF000307800F0200040F0450007F8020D12A8DD
:102F0000C01B00F107081498007800B1012000EB05
:102F10000A01019801EBE07105984144401A401EF6
:102F20000590E00306D45B462146179A059800F009
:102F30005DF805441498007818B15A4617999047DF
:102F40006D1CE00324D55B462146179A059800F0D6
:102F50004DF805441CE00498002807DBDDE9030177
:102F6000884203DD0098405C179901E017993020F2
:102F70005A469047049805F10105401C04900198B9
:102F8000401E019004D12E205A46179990476D1C7F
:102F9000BAF10001AAF1010ADDDC05E017F8010B26
:102FA0005A46179990476D1CB8F10001A8F1010825
:102FB000F4DC5B462146179A0598ABE62D0000002D
:102FC0002B000000200000002DE9F0410446002500
:102FD0001E461746880404D405E039462020B04731
:102FE0006D1C641EF9D52846BDE8F0812DE9F0413D
:102FF000044600251E469046C80301D5302700E050
:103000002027880404D505E041463846B0476D1CAA
:10301000641EF9D52846BDE8F0814A68002A06D02A
:103020000A68531C0B6010704868401E4860704767
:103030009FED070A07E000BFF0EC010A521EB1EC59
:10304000011A00EE810A002AF6D183ED000A7047CA
:10305000000000002DED028B86B0FEF747F9FFF768
:10306000A1F8FEF7D9FFFEF7B9FFFEF757FFFFF70C
:1030700029F8FFF775F8FEF781FF6348FEF7C4FCF7
:103080004FF48064224661496148FDF705FE2246FF
:1030900060496148FDF700FE5B48FEF7F7FCDFED95
:1030A0005F8ADFF87CB15F4801780029FBD0417866
:1030B0000029F8D000210170417040215A48FDF7E5
:1030C000D8F8544A0020594632F8103000EE103A31
:1030D00001EB8003401CF8EE400A80B2B0F5806F2F
:1030E00080EEA80A83ED000AEED30024204601E01A
:1030F00084420AD3221A0BEB820191ED000A4A495D
:1031000001EB800282ED000A0DE0011B89B2C1F1E2
:103110000F02464901EB820191ED000A424901EBA1
:10312000800181ED000A401C80B21028E0D33748AE
:103130009FED3F1A3C4930F8140000EE100A394860
:10314000B8EE400A80EE288A90ED010A78EE400A37
:1031500000EE810A80ED010A364880ED028A0160A6
:10316000102181803449FEF775FE3349334A0868DF
:10317000009042F8240002F580504D6840F8245039
:103180005BF82400FDF708FA0746884618EE100A97
:10319000FDF702FA81468A462846FDF7FDF9054605
:1031A0000E460098FDF7F8F98DE8600641EC100B2B
:1031B000CDE9047853EC102B21A0FFF78BFA641CA7
:1031C000A4B2B4F5806F4FF0000091D317495A466E
:1031D00002EB800303F5406393EDF10A01EB8003FA
:1031E000401C80B283ED000A0F28F1D34FF48064B5
:1031F000224606490648FDF74FFD22460549064886
:10320000FDF74AFD4FE70000C041002034000020D8
:103210007040002034080020B840002000F07F45B6
:1032200034300020000000201843002034400020EB
:103230006F12033BD84300202C00002034100020E4
:1032400025662C25662C25662C25660D0A000000B7
:103250000006101600061016000000000000000016
:10326000010203040607080900000000010203042C
:1032700090320008000000203400000048270008B9
:10328000C432000834000020B4470000582700086A
:10329000000000000000000001000000100000001D
:1032A000000000000024F400010000000000000005
:1032B000000000000000000000000000000000000E
:0432C000000000000A
:040000050800018965
:00000001FF
